{
  "_format": "hh-sol-artifact-1",
  "contractName": "TokenGatedDao",
  "sourceName": "contracts/TokenGatedDao.sol",
  "abi": [
    {
      "inputs": [
        {
          "internalType": "address",
          "name": "_tokenAddress",
          "type": "address"
        }
      ],
      "stateMutability": "nonpayable",
      "type": "constructor"
    },
    {
      "anonymous": false,
      "inputs": [
        {
          "indexed": false,
          "internalType": "uint256",
          "name": "proposalId",
          "type": "uint256"
        },
        {
          "indexed": false,
          "internalType": "string",
          "name": "title",
          "type": "string"
        },
        {
          "indexed": false,
          "internalType": "string",
          "name": "description",
          "type": "string"
        },
        {
          "indexed": false,
          "internalType": "uint256",
          "name": "startTime",
          "type": "uint256"
        },
        {
          "indexed": false,
          "internalType": "uint256",
          "name": "endTime",
          "type": "uint256"
        }
      ],
      "name": "ProposalCreated",
      "type": "event"
    },
    {
      "anonymous": false,
      "inputs": [
        {
          "indexed": false,
          "internalType": "uint256",
          "name": "proposalId",
          "type": "uint256"
        },
        {
          "indexed": false,
          "internalType": "address",
          "name": "voter",
          "type": "address"
        },
        {
          "indexed": false,
          "internalType": "bool",
          "name": "isYesVote",
          "type": "bool"
        },
        {
          "indexed": false,
          "internalType": "uint256",
          "name": "yesVotes",
          "type": "uint256"
        },
        {
          "indexed": false,
          "internalType": "uint256",
          "name": "noVotes",
          "type": "uint256"
        }
      ],
      "name": "Voted",
      "type": "event"
    },
    {
      "inputs": [],
      "name": "addMember",
      "outputs": [],
      "stateMutability": "nonpayable",
      "type": "function"
    },
    {
      "inputs": [
        {
          "internalType": "string",
          "name": "_title",
          "type": "string"
        },
        {
          "internalType": "string",
          "name": "_description",
          "type": "string"
        },
        {
          "internalType": "uint256",
          "name": "_startTime",
          "type": "uint256"
        },
        {
          "internalType": "uint256",
          "name": "_endTime",
          "type": "uint256"
        }
      ],
      "name": "createProposal",
      "outputs": [],
      "stateMutability": "nonpayable",
      "type": "function"
    },
    {
      "inputs": [
        {
          "internalType": "uint256",
          "name": "_proposalIndex",
          "type": "uint256"
        }
      ],
      "name": "endVoting",
      "outputs": [],
      "stateMutability": "view",
      "type": "function"
    },
    {
      "inputs": [],
      "name": "getAllProposals",
      "outputs": [
        {
          "components": [
            {
              "internalType": "address",
              "name": "creator",
              "type": "address"
            },
            {
              "internalType": "string",
              "name": "title",
              "type": "string"
            },
            {
              "internalType": "string",
              "name": "description",
              "type": "string"
            },
            {
              "internalType": "uint256",
              "name": "startTime",
              "type": "uint256"
            },
            {
              "internalType": "uint256",
              "name": "endTime",
              "type": "uint256"
            },
            {
              "internalType": "uint256",
              "name": "yesVotes",
              "type": "uint256"
            },
            {
              "internalType": "uint256",
              "name": "noVotes",
              "type": "uint256"
            }
          ],
          "internalType": "struct TokenGatedDao.Proposal[]",
          "name": "",
          "type": "tuple[]"
        }
      ],
      "stateMutability": "view",
      "type": "function"
    },
    {
      "inputs": [],
      "name": "getMembers",
      "outputs": [
        {
          "components": [
            {
              "internalType": "address",
              "name": "memberAddress",
              "type": "address"
            },
            {
              "internalType": "uint256",
              "name": "tokenBalance",
              "type": "uint256"
            }
          ],
          "internalType": "struct TokenGatedDao.Member[]",
          "name": "",
          "type": "tuple[]"
        }
      ],
      "stateMutability": "view",
      "type": "function"
    },
    {
      "inputs": [
        {
          "internalType": "uint256",
          "name": "_proposalIndex",
          "type": "uint256"
        }
      ],
      "name": "getProposal",
      "outputs": [
        {
          "internalType": "address",
          "name": "creator",
          "type": "address"
        },
        {
          "internalType": "string",
          "name": "title",
          "type": "string"
        },
        {
          "internalType": "string",
          "name": "description",
          "type": "string"
        },
        {
          "internalType": "uint256",
          "name": "startTime",
          "type": "uint256"
        },
        {
          "internalType": "uint256",
          "name": "endTime",
          "type": "uint256"
        },
        {
          "internalType": "uint256",
          "name": "yesVotes",
          "type": "uint256"
        },
        {
          "internalType": "uint256",
          "name": "noVotes",
          "type": "uint256"
        }
      ],
      "stateMutability": "view",
      "type": "function"
    },
    {
      "inputs": [
        {
          "internalType": "uint256",
          "name": "_proposalIndex",
          "type": "uint256"
        }
      ],
      "name": "getProposalStatus",
      "outputs": [
        {
          "internalType": "uint256",
          "name": "",
          "type": "uint256"
        }
      ],
      "stateMutability": "view",
      "type": "function"
    },
    {
      "inputs": [],
      "name": "getTokenBalance",
      "outputs": [
        {
          "internalType": "uint256",
          "name": "",
          "type": "uint256"
        }
      ],
      "stateMutability": "view",
      "type": "function"
    },
    {
      "inputs": [],
      "name": "getVoters",
      "outputs": [
        {
          "components": [
            {
              "internalType": "uint256",
              "name": "proposerIndex",
              "type": "uint256"
            },
            {
              "internalType": "address",
              "name": "voterAddress",
              "type": "address"
            },
            {
              "internalType": "bool",
              "name": "voteChoice",
              "type": "bool"
            }
          ],
          "internalType": "struct TokenGatedDao.Voter[]",
          "name": "",
          "type": "tuple[]"
        }
      ],
      "stateMutability": "view",
      "type": "function"
    },
    {
      "inputs": [
        {
          "internalType": "address",
          "name": "",
          "type": "address"
        }
      ],
      "name": "hasVoted",
      "outputs": [
        {
          "internalType": "bool",
          "name": "",
          "type": "bool"
        }
      ],
      "stateMutability": "view",
      "type": "function"
    },
    {
      "inputs": [],
      "name": "memberCount",
      "outputs": [
        {
          "internalType": "uint256",
          "name": "",
          "type": "uint256"
        }
      ],
      "stateMutability": "view",
      "type": "function"
    },
    {
      "inputs": [
        {
          "internalType": "uint256",
          "name": "",
          "type": "uint256"
        }
      ],
      "name": "members",
      "outputs": [
        {
          "internalType": "address",
          "name": "memberAddress",
          "type": "address"
        },
        {
          "internalType": "uint256",
          "name": "tokenBalance",
          "type": "uint256"
        }
      ],
      "stateMutability": "view",
      "type": "function"
    },
    {
      "inputs": [
        {
          "internalType": "address",
          "name": "",
          "type": "address"
        }
      ],
      "name": "membersMap",
      "outputs": [
        {
          "internalType": "address",
          "name": "memberAddress",
          "type": "address"
        },
        {
          "internalType": "uint256",
          "name": "tokenBalance",
          "type": "uint256"
        }
      ],
      "stateMutability": "view",
      "type": "function"
    },
    {
      "inputs": [],
      "name": "proposalCount",
      "outputs": [
        {
          "internalType": "uint256",
          "name": "",
          "type": "uint256"
        }
      ],
      "stateMutability": "view",
      "type": "function"
    },
    {
      "inputs": [
        {
          "internalType": "uint256",
          "name": "",
          "type": "uint256"
        }
      ],
      "name": "proposals",
      "outputs": [
        {
          "internalType": "address",
          "name": "creator",
          "type": "address"
        },
        {
          "internalType": "string",
          "name": "title",
          "type": "string"
        },
        {
          "internalType": "string",
          "name": "description",
          "type": "string"
        },
        {
          "internalType": "uint256",
          "name": "startTime",
          "type": "uint256"
        },
        {
          "internalType": "uint256",
          "name": "endTime",
          "type": "uint256"
        },
        {
          "internalType": "uint256",
          "name": "yesVotes",
          "type": "uint256"
        },
        {
          "internalType": "uint256",
          "name": "noVotes",
          "type": "uint256"
        }
      ],
      "stateMutability": "view",
      "type": "function"
    },
    {
      "inputs": [],
      "name": "token",
      "outputs": [
        {
          "internalType": "contract IERC20",
          "name": "",
          "type": "address"
        }
      ],
      "stateMutability": "view",
      "type": "function"
    },
    {
      "inputs": [
        {
          "internalType": "uint256",
          "name": "_proposalIndex",
          "type": "uint256"
        },
        {
          "internalType": "bool",
          "name": "_supportsProposal",
          "type": "bool"
        }
      ],
      "name": "vote",
      "outputs": [],
      "stateMutability": "nonpayable",
      "type": "function"
    },
    {
      "inputs": [
        {
          "internalType": "uint256",
          "name": "",
          "type": "uint256"
        }
      ],
      "name": "voters",
      "outputs": [
        {
          "internalType": "uint256",
          "name": "proposerIndex",
          "type": "uint256"
        },
        {
          "internalType": "address",
          "name": "voterAddress",
          "type": "address"
        },
        {
          "internalType": "bool",
          "name": "voteChoice",
          "type": "bool"
        }
      ],
      "stateMutability": "view",
      "type": "function"
    },
    {
      "inputs": [],
      "name": "votingPeriod",
      "outputs": [
        {
          "internalType": "uint256",
          "name": "",
          "type": "uint256"
        }
      ],
      "stateMutability": "view",
      "type": "function"
    }
  ],
  "bytecode": "0x60806040523480156200001157600080fd5b506040516200381038038062003810833981810160405281019062000037919062000314565b80600160006101000a81548173ffffffffffffffffffffffffffffffffffffffff021916908373ffffffffffffffffffffffffffffffffffffffff160217905550336000806101000a81548173ffffffffffffffffffffffffffffffffffffffff021916908373ffffffffffffffffffffffffffffffffffffffff16021790555033600960008060009054906101000a900473ffffffffffffffffffffffffffffffffffffffff1673ffffffffffffffffffffffffffffffffffffffff1673ffffffffffffffffffffffffffffffffffffffff16815260200190815260200160002060000160006101000a81548173ffffffffffffffffffffffffffffffffffffffff021916908373ffffffffffffffffffffffffffffffffffffffff160217905550600460405180604001604052803373ffffffffffffffffffffffffffffffffffffffff168152602001600160009054906101000a900473ffffffffffffffffffffffffffffffffffffffff1673ffffffffffffffffffffffffffffffffffffffff166370a08231336040518263ffffffff1660e01b8152600401620001e0919062000357565b602060405180830381865afa158015620001fe573d6000803e3d6000fd5b505050506040513d601f19601f82011682018060405250810190620002249190620003af565b815250908060018154018082558091505060019003906000526020600020906002020160009091909190915060008201518160000160006101000a81548173ffffffffffffffffffffffffffffffffffffffff021916908373ffffffffffffffffffffffffffffffffffffffff16021790555060208201518160010155505050620003e1565b600080fd5b600073ffffffffffffffffffffffffffffffffffffffff82169050919050565b6000620002dc82620002af565b9050919050565b620002ee81620002cf565b8114620002fa57600080fd5b50565b6000815190506200030e81620002e3565b92915050565b6000602082840312156200032d576200032c620002aa565b5b60006200033d84828501620002fd565b91505092915050565b6200035181620002cf565b82525050565b60006020820190506200036e600083018462000346565b92915050565b6000819050919050565b620003898162000374565b81146200039557600080fd5b50565b600081519050620003a9816200037e565b92915050565b600060208284031215620003c857620003c7620002aa565b5b6000620003d88482850162000398565b91505092915050565b61341f80620003f16000396000f3fe608060405234801561001057600080fd5b50600436106101215760003560e01c806382b2e257116100ad578063cceb68f511610071578063cceb68f51461032a578063cdd7225314610348578063da35c66414610366578063da58c7d914610384578063fc0c546a146103b657610121565b806382b2e2571461026b578063872ea68a146102895780639eab5253146102ba578063c7f758a8146102d8578063c9d27afe1461030e57610121565b806311aee380116100f457806311aee380146101b4578063401853b7146101d25780635daf08ca14610202578063649f89a5146102335780636b5e17661461024f57610121565b8063013cf08b14610126578063029d010d1461015c57806302a251a31461016657806309eef43e14610184575b600080fd5b610140600480360381019061013b9190611fcd565b6103d4565b60405161015397969594939291906120da565b60405180910390f35b610164610556565b005b61016e61084e565b60405161017b9190612157565b60405180910390f35b61019e6004803603810190610199919061219e565b610854565b6040516101ab91906121e6565b60405180910390f35b6101bc610874565b6040516101c99190612157565b60405180910390f35b6101ec60048036038101906101e79190611fcd565b61087a565b6040516101f99190612157565b60405180910390f35b61021c60048036038101906102179190611fcd565b610937565b60405161022a929190612201565b60405180910390f35b61024d60048036038101906102489190611fcd565b61098b565b005b6102696004803603810190610264919061228f565b610caa565b005b6102736111bb565b6040516102809190612157565b60405180910390f35b6102a3600480360381019061029e919061219e565b61125e565b6040516102b1929190612201565b60405180910390f35b6102c26112a2565b6040516102cf9190612432565b60405180910390f35b6102f260048036038101906102ed9190611fcd565b611361565b60405161030597969594939291906120da565b60405180910390f35b61032860048036038101906103239190612480565b6115c0565b005b610332611c1f565b60405161033f919061266f565b60405180910390f35b610350611e20565b60405161035d9190612791565b60405180910390f35b61036e611efa565b60405161037b9190612157565b60405180910390f35b61039e60048036038101906103999190611fcd565b611f00565b6040516103ad939291906127b3565b60405180910390f35b6103be611f67565b6040516103cb9190612849565b60405180910390f35b600281815481106103e457600080fd5b90600052602060002090600702016000915090508060000160009054906101000a900473ffffffffffffffffffffffffffffffffffffffff169080600101805461042d90612893565b80601f016020809104026020016040519081016040528092919081815260200182805461045990612893565b80156104a65780601f1061047b576101008083540402835291602001916104a6565b820191906000526020600020905b81548152906001019060200180831161048957829003601f168201915b5050505050908060020180546104bb90612893565b80601f01602080910402602001604051908101604052809291908181526020018280546104e790612893565b80156105345780601f1061050957610100808354040283529160200191610534565b820191906000526020600020905b81548152906001019060200180831161051757829003601f168201915b5050505050908060030154908060040154908060050154908060060154905087565b600073ffffffffffffffffffffffffffffffffffffffff163373ffffffffffffffffffffffffffffffffffffffff16036105c5576040517f08c379a00000000000000000000000000000000000000000000000000000000081526004016105bc90612910565b60405180910390fd5b6000600960003373ffffffffffffffffffffffffffffffffffffffff1673ffffffffffffffffffffffffffffffffffffffff1681526020019081526020016000209050338160000160006101000a81548173ffffffffffffffffffffffffffffffffffffffff021916908373ffffffffffffffffffffffffffffffffffffffff160217905550600160009054906101000a900473ffffffffffffffffffffffffffffffffffffffff1673ffffffffffffffffffffffffffffffffffffffff166370a08231336040518263ffffffff1660e01b81526004016106a69190612930565b602060405180830381865afa1580156106c3573d6000803e3d6000fd5b505050506040513d601f19601f820116820180604052508101906106e79190612960565b8160010181905550600460405180604001604052803373ffffffffffffffffffffffffffffffffffffffff168152602001600160009054906101000a900473ffffffffffffffffffffffffffffffffffffffff1673ffffffffffffffffffffffffffffffffffffffff166370a08231336040518263ffffffff1660e01b81526004016107739190612930565b602060405180830381865afa158015610790573d6000803e3d6000fd5b505050506040513d601f19601f820116820180604052508101906107b49190612960565b815250908060018154018082558091505060019003906000526020600020906002020160009091909190915060008201518160000160006101000a81548173ffffffffffffffffffffffffffffffffffffffff021916908373ffffffffffffffffffffffffffffffffffffffff16021790555060208201518160010155505060076000815480929190610846906129bc565b919050555050565b60065481565b60086020528060005260406000206000915054906101000a900460ff1681565b60075481565b6000806002838154811061089157610890612a04565b5b9060005260206000209060070201600301544210156108b3576000905061091c565b600283815481106108c7576108c6612a04565b5b90600052602060002090600702016004015442116108e8576001905061091b565b600283815481106108fc576108fb612a04565b5b90600052602060002090600702016004015442111561091a57600290505b5b5b80600281111561092f5761092e612a33565b5b915050919050565b6004818154811061094757600080fd5b90600052602060002090600202016000915090508060000160009054906101000a900473ffffffffffffffffffffffffffffffffffffffff16908060010154905082565b60055481106109cf576040517f08c379a00000000000000000000000000000000000000000000000000000000081526004016109c690612aae565b60405180910390fd5b3373ffffffffffffffffffffffffffffffffffffffff16600282815481106109fa576109f9612a04565b5b906000526020600020906007020160000160009054906101000a900473ffffffffffffffffffffffffffffffffffffffff1673ffffffffffffffffffffffffffffffffffffffff1614610a82576040517f08c379a0000000000000000000000000000000000000000000000000000000008152600401610a7990612b40565b60405180910390fd5b600060028281548110610a9857610a97612a04565b5b90600052602060002090600702016040518060e00160405290816000820160009054906101000a900473ffffffffffffffffffffffffffffffffffffffff1673ffffffffffffffffffffffffffffffffffffffff1673ffffffffffffffffffffffffffffffffffffffff168152602001600182018054610b1790612893565b80601f0160208091040260200160405190810160405280929190818152602001828054610b4390612893565b8015610b905780601f10610b6557610100808354040283529160200191610b90565b820191906000526020600020905b815481529060010190602001808311610b7357829003601f168201915b50505050508152602001600282018054610ba990612893565b80601f0160208091040260200160405190810160405280929190818152602001828054610bd590612893565b8015610c225780601f10610bf757610100808354040283529160200191610c22565b820191906000526020600020905b815481529060010190602001808311610c0557829003601f168201915b505050505081526020016003820154815260200160048201548152602001600582015481526020016006820154815250509050600654421015610c9a576040517f08c379a0000000000000000000000000000000000000000000000000000000008152600401610c9190612bac565b60405180910390fd5b8060c001518160a0015150505050565b3373ffffffffffffffffffffffffffffffffffffffff16600960003373ffffffffffffffffffffffffffffffffffffffff1673ffffffffffffffffffffffffffffffffffffffff16815260200190815260200160002060000160009054906101000a900473ffffffffffffffffffffffffffffffffffffffff1673ffffffffffffffffffffffffffffffffffffffff1614610d7a576040517f08c379a0000000000000000000000000000000000000000000000000000000008152600401610d7190612c3e565b60405180910390fd5b6000600160009054906101000a900473ffffffffffffffffffffffffffffffffffffffff1673ffffffffffffffffffffffffffffffffffffffff166370a08231336040518263ffffffff1660e01b8152600401610dd79190612930565b602060405180830381865afa158015610df4573d6000803e3d6000fd5b505050506040513d601f19601f82011682018060405250810190610e189190612960565b11610e58576040517f08c379a0000000000000000000000000000000000000000000000000000000008152600401610e4f90612cd0565b60405180910390fd5b428211610e9a576040517f08c379a0000000000000000000000000000000000000000000000000000000008152600401610e9190612d62565b60405180910390fd5b818111610edc576040517f08c379a0000000000000000000000000000000000000000000000000000000008152600401610ed390612df4565b60405180910390fd5b3373ffffffffffffffffffffffffffffffffffffffff16600960003373ffffffffffffffffffffffffffffffffffffffff1673ffffffffffffffffffffffffffffffffffffffff16815260200190815260200160002060000160009054906101000a900473ffffffffffffffffffffffffffffffffffffffff1673ffffffffffffffffffffffffffffffffffffffff1614610fac576040517f08c379a0000000000000000000000000000000000000000000000000000000008152600401610fa390612c3e565b60405180910390fd5b60026040518060e001604052803373ffffffffffffffffffffffffffffffffffffffff16815260200188888080601f016020809104026020016040519081016040528093929190818152602001838380828437600081840152601f19601f82011690508083019250505050505050815260200186868080601f016020809104026020016040519081016040528093929190818152602001838380828437600081840152601f19601f820116905080830192505050505050508152602001848152602001838152602001600081526020016000815250908060018154018082558091505060019003906000526020600020906007020160009091909190915060008201518160000160006101000a81548173ffffffffffffffffffffffffffffffffffffffff021916908373ffffffffffffffffffffffffffffffffffffffff16021790555060208201518160010190816111069190612fe5565b50604082015181600201908161111c9190612fe5565b50606082015181600301556080820151816004015560a0820151816005015560c0820151816006015550506005600081548092919061115a906129bc565b91905055507fd6b0b08c4ffc17964758389955af67e78f9c97140393526749d4994031e62ef2600160028054905061119291906130b7565b8787878787876040516111ab9796959493929190613127565b60405180910390a1505050505050565b6000600160009054906101000a900473ffffffffffffffffffffffffffffffffffffffff1673ffffffffffffffffffffffffffffffffffffffff166370a08231336040518263ffffffff1660e01b81526004016112189190612930565b602060405180830381865afa158015611235573d6000803e3d6000fd5b505050506040513d601f19601f820116820180604052508101906112599190612960565b905090565b60096020528060005260406000206000915090508060000160009054906101000a900473ffffffffffffffffffffffffffffffffffffffff16908060010154905082565b60606004805480602002602001604051908101604052809291908181526020016000905b8282101561135857838290600052602060002090600202016040518060400160405290816000820160009054906101000a900473ffffffffffffffffffffffffffffffffffffffff1673ffffffffffffffffffffffffffffffffffffffff1673ffffffffffffffffffffffffffffffffffffffff168152602001600182015481525050815260200190600101906112c6565b50505050905090565b600060608060008060008060055488106113b0576040517f08c379a00000000000000000000000000000000000000000000000000000000081526004016113a790612aae565b60405180910390fd5b6000600289815481106113c6576113c5612a04565b5b90600052602060002090600702016040518060e00160405290816000820160009054906101000a900473ffffffffffffffffffffffffffffffffffffffff1673ffffffffffffffffffffffffffffffffffffffff1673ffffffffffffffffffffffffffffffffffffffff16815260200160018201805461144590612893565b80601f016020809104026020016040519081016040528092919081815260200182805461147190612893565b80156114be5780601f10611493576101008083540402835291602001916114be565b820191906000526020600020905b8154815290600101906020018083116114a157829003601f168201915b505050505081526020016002820180546114d790612893565b80601f016020809104026020016040519081016040528092919081815260200182805461150390612893565b80156115505780601f1061152557610100808354040283529160200191611550565b820191906000526020600020905b81548152906001019060200180831161153357829003601f168201915b505050505081526020016003820154815260200160048201548152602001600582015481526020016006820154815250509050806000015181602001518260400151836060015184608001518560a001518660c00151975097509750975097509750975050919395979092949650565b3373ffffffffffffffffffffffffffffffffffffffff16600960003373ffffffffffffffffffffffffffffffffffffffff1673ffffffffffffffffffffffffffffffffffffffff16815260200190815260200160002060000160009054906101000a900473ffffffffffffffffffffffffffffffffffffffff1673ffffffffffffffffffffffffffffffffffffffff1614611690576040517f08c379a000000000000000000000000000000000000000000000000000000000815260040161168790612c3e565b60405180910390fd5b600282815481106116a4576116a3612a04565b5b906000526020600020906007020160030154600283815481106116ca576116c9612a04565b5b9060005260206000209060070201600401548142101561171f576040517f08c379a0000000000000000000000000000000000000000000000000000000008152600401611716906131d8565b60405180910390fd5b80421115611762576040517f08c379a000000000000000000000000000000000000000000000000000000000815260040161175990613244565b60405180910390fd5b60055484106117a6576040517f08c379a000000000000000000000000000000000000000000000000000000000815260040161179d90612aae565b60405180910390fd5b600860003373ffffffffffffffffffffffffffffffffffffffff1673ffffffffffffffffffffffffffffffffffffffff16815260200190815260200160002060009054906101000a900460ff1615611833576040517f08c379a000000000000000000000000000000000000000000000000000000000815260040161182a906132d6565b60405180910390fd5b6000600160009054906101000a900473ffffffffffffffffffffffffffffffffffffffff1673ffffffffffffffffffffffffffffffffffffffff166370a08231336040518263ffffffff1660e01b81526004016118909190612930565b602060405180830381865afa1580156118ad573d6000803e3d6000fd5b505050506040513d601f19601f820116820180604052508101906118d19190612960565b11611911576040517f08c379a000000000000000000000000000000000000000000000000000000000815260040161190890613342565b60405180910390fd5b3373ffffffffffffffffffffffffffffffffffffffff16600960003373ffffffffffffffffffffffffffffffffffffffff1673ffffffffffffffffffffffffffffffffffffffff16815260200190815260200160002060000160009054906101000a900473ffffffffffffffffffffffffffffffffffffffff1673ffffffffffffffffffffffffffffffffffffffff16146119e1576040517f08c379a00000000000000000000000000000000000000000000000000000000081526004016119d890612c3e565b60405180910390fd5b6001600860003373ffffffffffffffffffffffffffffffffffffffff1673ffffffffffffffffffffffffffffffffffffffff16815260200190815260200160002060006101000a81548160ff0219169083151502179055508215611a8157600160028581548110611a5557611a54612a04565b5b90600052602060002090600702016005016000828254611a759190613362565b92505081905550611abf565b600160028581548110611a9757611a96612a04565b5b90600052602060002090600702016006016000828254611ab79190613362565b925050819055505b600360405180606001604052808681526020013373ffffffffffffffffffffffffffffffffffffffff16815260200185151581525090806001815401808255809150506001900390600052602060002090600202016000909190919091506000820151816000015560208201518160010160006101000a81548173ffffffffffffffffffffffffffffffffffffffff021916908373ffffffffffffffffffffffffffffffffffffffff16021790555060408201518160010160146101000a81548160ff02191690831515021790555050507f72977ad883f7d5821678747ec7baf0a5afb5fcb5da86f061dbd347b408edef4484338560028881548110611bc857611bc7612a04565b5b90600052602060002090600702016005015460028981548110611bee57611bed612a04565b5b906000526020600020906007020160060154604051611c11959493929190613396565b60405180910390a150505050565b60606002805480602002602001604051908101604052809291908181526020016000905b82821015611e1757838290600052602060002090600702016040518060e00160405290816000820160009054906101000a900473ffffffffffffffffffffffffffffffffffffffff1673ffffffffffffffffffffffffffffffffffffffff1673ffffffffffffffffffffffffffffffffffffffff168152602001600182018054611ccc90612893565b80601f0160208091040260200160405190810160405280929190818152602001828054611cf890612893565b8015611d455780601f10611d1a57610100808354040283529160200191611d45565b820191906000526020600020905b815481529060010190602001808311611d2857829003601f168201915b50505050508152602001600282018054611d5e90612893565b80601f0160208091040260200160405190810160405280929190818152602001828054611d8a90612893565b8015611dd75780601f10611dac57610100808354040283529160200191611dd7565b820191906000526020600020905b815481529060010190602001808311611dba57829003601f168201915b5050505050815260200160038201548152602001600482015481526020016005820154815260200160068201548152505081526020019060010190611c43565b50505050905090565b60606003805480602002602001604051908101604052809291908181526020016000905b82821015611ef15783829060005260206000209060020201604051806060016040529081600082015481526020016001820160009054906101000a900473ffffffffffffffffffffffffffffffffffffffff1673ffffffffffffffffffffffffffffffffffffffff1673ffffffffffffffffffffffffffffffffffffffff1681526020016001820160149054906101000a900460ff16151515158152505081526020019060010190611e44565b50505050905090565b60055481565b60038181548110611f1057600080fd5b90600052602060002090600202016000915090508060000154908060010160009054906101000a900473ffffffffffffffffffffffffffffffffffffffff16908060010160149054906101000a900460ff16905083565b600160009054906101000a900473ffffffffffffffffffffffffffffffffffffffff1681565b600080fd5b600080fd5b6000819050919050565b611faa81611f97565b8114611fb557600080fd5b50565b600081359050611fc781611fa1565b92915050565b600060208284031215611fe357611fe2611f8d565b5b6000611ff184828501611fb8565b91505092915050565b600073ffffffffffffffffffffffffffffffffffffffff82169050919050565b600061202582611ffa565b9050919050565b6120358161201a565b82525050565b600081519050919050565b600082825260208201905092915050565b60005b8381101561207557808201518184015260208101905061205a565b60008484015250505050565b6000601f19601f8301169050919050565b600061209d8261203b565b6120a78185612046565b93506120b7818560208601612057565b6120c081612081565b840191505092915050565b6120d481611f97565b82525050565b600060e0820190506120ef600083018a61202c565b81810360208301526121018189612092565b905081810360408301526121158188612092565b905061212460608301876120cb565b61213160808301866120cb565b61213e60a08301856120cb565b61214b60c08301846120cb565b98975050505050505050565b600060208201905061216c60008301846120cb565b92915050565b61217b8161201a565b811461218657600080fd5b50565b60008135905061219881612172565b92915050565b6000602082840312156121b4576121b3611f8d565b5b60006121c284828501612189565b91505092915050565b60008115159050919050565b6121e0816121cb565b82525050565b60006020820190506121fb60008301846121d7565b92915050565b6000604082019050612216600083018561202c565b61222360208301846120cb565b9392505050565b600080fd5b600080fd5b600080fd5b60008083601f84011261224f5761224e61222a565b5b8235905067ffffffffffffffff81111561226c5761226b61222f565b5b60208301915083600182028301111561228857612287612234565b5b9250929050565b600080600080600080608087890312156122ac576122ab611f8d565b5b600087013567ffffffffffffffff8111156122ca576122c9611f92565b5b6122d689828a01612239565b9650965050602087013567ffffffffffffffff8111156122f9576122f8611f92565b5b61230589828a01612239565b9450945050604061231889828a01611fb8565b925050606061232989828a01611fb8565b9150509295509295509295565b600081519050919050565b600082825260208201905092915050565b6000819050602082019050919050565b61236b8161201a565b82525050565b61237a81611f97565b82525050565b6040820160008201516123966000850182612362565b5060208201516123a96020850182612371565b50505050565b60006123bb8383612380565b60408301905092915050565b6000602082019050919050565b60006123df82612336565b6123e98185612341565b93506123f483612352565b8060005b8381101561242557815161240c88826123af565b9750612417836123c7565b9250506001810190506123f8565b5085935050505092915050565b6000602082019050818103600083015261244c81846123d4565b905092915050565b61245d816121cb565b811461246857600080fd5b50565b60008135905061247a81612454565b92915050565b6000806040838503121561249757612496611f8d565b5b60006124a585828601611fb8565b92505060206124b68582860161246b565b9150509250929050565b600081519050919050565b600082825260208201905092915050565b6000819050602082019050919050565b600082825260208201905092915050565b60006125088261203b565b61251281856124ec565b9350612522818560208601612057565b61252b81612081565b840191505092915050565b600060e08301600083015161254e6000860182612362565b506020830151848203602086015261256682826124fd565b9150506040830151848203604086015261258082826124fd565b91505060608301516125956060860182612371565b5060808301516125a86080860182612371565b5060a08301516125bb60a0860182612371565b5060c08301516125ce60c0860182612371565b508091505092915050565b60006125e58383612536565b905092915050565b6000602082019050919050565b6000612605826124c0565b61260f81856124cb565b935083602082028501612621856124dc565b8060005b8581101561265d578484038952815161263e85826125d9565b9450612649836125ed565b925060208a01995050600181019050612625565b50829750879550505050505092915050565b6000602082019050818103600083015261268981846125fa565b905092915050565b600081519050919050565b600082825260208201905092915050565b6000819050602082019050919050565b6126c6816121cb565b82525050565b6060820160008201516126e26000850182612371565b5060208201516126f56020850182612362565b50604082015161270860408501826126bd565b50505050565b600061271a83836126cc565b60608301905092915050565b6000602082019050919050565b600061273e82612691565b612748818561269c565b9350612753836126ad565b8060005b8381101561278457815161276b888261270e565b975061277683612726565b925050600181019050612757565b5085935050505092915050565b600060208201905081810360008301526127ab8184612733565b905092915050565b60006060820190506127c860008301866120cb565b6127d5602083018561202c565b6127e260408301846121d7565b949350505050565b6000819050919050565b600061280f61280a61280584611ffa565b6127ea565b611ffa565b9050919050565b6000612821826127f4565b9050919050565b600061283382612816565b9050919050565b61284381612828565b82525050565b600060208201905061285e600083018461283a565b92915050565b7f4e487b7100000000000000000000000000000000000000000000000000000000600052602260045260246000fd5b600060028204905060018216806128ab57607f821691505b6020821081036128be576128bd612864565b5b50919050565b7f416c72656164792061206d656d62657200000000000000000000000000000000600082015250565b60006128fa601083612046565b9150612905826128c4565b602082019050919050565b60006020820190508181036000830152612929816128ed565b9050919050565b6000602082019050612945600083018461202c565b92915050565b60008151905061295a81611fa1565b92915050565b60006020828403121561297657612975611f8d565b5b60006129848482850161294b565b91505092915050565b7f4e487b7100000000000000000000000000000000000000000000000000000000600052601160045260246000fd5b60006129c782611f97565b91507fffffffffffffffffffffffffffffffffffffffffffffffffffffffffffffffff82036129f9576129f861298d565b5b600182019050919050565b7f4e487b7100000000000000000000000000000000000000000000000000000000600052603260045260246000fd5b7f4e487b7100000000000000000000000000000000000000000000000000000000600052602160045260246000fd5b7f496e76616c69642070726f706f73616c20696e64657800000000000000000000600082015250565b6000612a98601683612046565b9150612aa382612a62565b602082019050919050565b60006020820190508181036000830152612ac781612a8b565b9050919050565b7f4f6e6c79207468652063726561746f72206f66207468652070726f706f73616c60008201527f2063616e20656e642074686520766f74696e6700000000000000000000000000602082015250565b6000612b2a603383612046565b9150612b3582612ace565b604082019050919050565b60006020820190508181036000830152612b5981612b1d565b9050919050565b7f566f74696e6720706572696f6420686173206e6f7420656e6465642079657400600082015250565b6000612b96601f83612046565b9150612ba182612b60565b602082019050919050565b60006020820190508181036000830152612bc581612b89565b9050919050565b7f596f7520617265206e6f74207965742061206d656d626572206f66207468697360008201527f20636f6d6d756e69747900000000000000000000000000000000000000000000602082015250565b6000612c28602a83612046565b9150612c3382612bcc565b604082019050919050565b60006020820190508181036000830152612c5781612c1b565b9050919050565b7f596f75206d75737420686f6c6420746f6b656e7320746f20637265617465206160008201527f2070726f706f73616c0000000000000000000000000000000000000000000000602082015250565b6000612cba602983612046565b9150612cc582612c5e565b604082019050919050565b60006020820190508181036000830152612ce981612cad565b9050919050565b7f50726f706f73616c2073746172742074696d65206d75737420626520696e207460008201527f6865206675747572650000000000000000000000000000000000000000000000602082015250565b6000612d4c602983612046565b9150612d5782612cf0565b604082019050919050565b60006020820190508181036000830152612d7b81612d3f565b9050919050565b7f50726f706f73616c20656e642074696d65206d7573742062652061667465722060008201527f73746172742074696d6500000000000000000000000000000000000000000000602082015250565b6000612dde602a83612046565b9150612de982612d82565b604082019050919050565b60006020820190508181036000830152612e0d81612dd1565b9050919050565b7f4e487b7100000000000000000000000000000000000000000000000000000000600052604160045260246000fd5b60008190508160005260206000209050919050565b60006020601f8301049050919050565b600082821b905092915050565b600060088302612ea57fffffffffffffffffffffffffffffffffffffffffffffffffffffffffffffffff82612e68565b612eaf8683612e68565b95508019841693508086168417925050509392505050565b6000612ee2612edd612ed884611f97565b6127ea565b611f97565b9050919050565b6000819050919050565b612efc83612ec7565b612f10612f0882612ee9565b848454612e75565b825550505050565b600090565b612f25612f18565b612f30818484612ef3565b505050565b5b81811015612f5457612f49600082612f1d565b600181019050612f36565b5050565b601f821115612f9957612f6a81612e43565b612f7384612e58565b81016020851015612f82578190505b612f96612f8e85612e58565b830182612f35565b50505b505050565b600082821c905092915050565b6000612fbc60001984600802612f9e565b1980831691505092915050565b6000612fd58383612fab565b9150826002028217905092915050565b612fee8261203b565b67ffffffffffffffff81111561300757613006612e14565b5b6130118254612893565b61301c828285612f58565b600060209050601f83116001811461304f576000841561303d578287015190505b6130478582612fc9565b8655506130af565b601f19841661305d86612e43565b60005b8281101561308557848901518255600182019150602085019450602081019050613060565b868310156130a2578489015161309e601f891682612fab565b8355505b6001600288020188555050505b505050505050565b60006130c282611f97565b91506130cd83611f97565b92508282039050818111156130e5576130e461298d565b5b92915050565b82818337600083830152505050565b60006131068385612046565b93506131138385846130eb565b61311c83612081565b840190509392505050565b600060a08201905061313c600083018a6120cb565b818103602083015261314f81888a6130fa565b905081810360408301526131648186886130fa565b905061317360608301856120cb565b61318060808301846120cb565b98975050505050505050565b7f566f74696e6720686173206e6f74207374617274656420796574000000000000600082015250565b60006131c2601a83612046565b91506131cd8261318c565b602082019050919050565b600060208201905081810360008301526131f1816131b5565b9050919050565b7f566f74696e672068617320616c726561647920656e6465640000000000000000600082015250565b600061322e601883612046565b9150613239826131f8565b602082019050919050565b6000602082019050818103600083015261325d81613221565b9050919050565b7f596f75206861766520616c726561647920766f74656420666f7220746869732060008201527f70726f706f73616c000000000000000000000000000000000000000000000000602082015250565b60006132c0602883612046565b91506132cb82613264565b604082019050919050565b600060208201905081810360008301526132ef816132b3565b9050919050565b7f596f75206d75737420686f6c6420746f6b656e7320746f20766f746500000000600082015250565b600061332c601c83612046565b9150613337826132f6565b602082019050919050565b6000602082019050818103600083015261335b8161331f565b9050919050565b600061336d82611f97565b915061337883611f97565b92508282019050808211156133905761338f61298d565b5b92915050565b600060a0820190506133ab60008301886120cb565b6133b8602083018761202c565b6133c560408301866121d7565b6133d260608301856120cb565b6133df60808301846120cb565b969550505050505056fea26469706673582212208e90195aa76b82a7eb6d0f9ee76d53e0c2a8583c53a9b957ffcda18fb4dc6aff64736f6c63430008110033",
  "linkReferences": {},
  "deployedLinkReferences": {}
}