{
  "_format": "hh-sol-artifact-1",
  "contractName": "TokenGatedDao",
  "sourceName": "contracts/TokenGatedDao.sol",
  "abi": [
    {
      "inputs": [
        {
          "internalType": "address",
          "name": "_tokenAddress",
          "type": "address"
        }
      ],
      "stateMutability": "nonpayable",
      "type": "constructor"
    },
    {
      "anonymous": false,
      "inputs": [
        {
          "indexed": false,
          "internalType": "address",
          "name": "memberAddress",
          "type": "address"
        },
        {
          "indexed": false,
          "internalType": "uint256",
          "name": "tokenBalance",
          "type": "uint256"
        }
      ],
      "name": "AddMember",
      "type": "event"
    },
    {
      "anonymous": false,
      "inputs": [
        {
          "indexed": false,
          "internalType": "uint256",
          "name": "proposalId",
          "type": "uint256"
        },
        {
          "indexed": false,
          "internalType": "string",
          "name": "title",
          "type": "string"
        },
        {
          "indexed": false,
          "internalType": "string",
          "name": "description",
          "type": "string"
        },
        {
          "indexed": false,
          "internalType": "uint256",
          "name": "startTime",
          "type": "uint256"
        },
        {
          "indexed": false,
          "internalType": "uint256",
          "name": "endTime",
          "type": "uint256"
        }
      ],
      "name": "ProposalCreated",
      "type": "event"
    },
    {
      "anonymous": false,
      "inputs": [
        {
          "indexed": false,
          "internalType": "uint256",
          "name": "proposalId",
          "type": "uint256"
        },
        {
          "indexed": false,
          "internalType": "address",
          "name": "voter",
          "type": "address"
        },
        {
          "indexed": false,
          "internalType": "uint256",
          "name": "choice",
          "type": "uint256"
        },
        {
          "indexed": false,
          "internalType": "uint256",
          "name": "yesVotes",
          "type": "uint256"
        },
        {
          "indexed": false,
          "internalType": "uint256",
          "name": "noVotes",
          "type": "uint256"
        }
      ],
      "name": "Voted",
      "type": "event"
    },
    {
      "inputs": [],
      "name": "addMember",
      "outputs": [],
      "stateMutability": "nonpayable",
      "type": "function"
    },
    {
      "inputs": [
        {
          "internalType": "string",
          "name": "_title",
          "type": "string"
        },
        {
          "internalType": "string",
          "name": "_description",
          "type": "string"
        },
        {
          "internalType": "uint256",
          "name": "_startTime",
          "type": "uint256"
        },
        {
          "internalType": "uint256",
          "name": "_endTime",
          "type": "uint256"
        }
      ],
      "name": "createProposal",
      "outputs": [],
      "stateMutability": "nonpayable",
      "type": "function"
    },
    {
      "inputs": [
        {
          "internalType": "uint256",
          "name": "_proposalIndex",
          "type": "uint256"
        }
      ],
      "name": "endVoting",
      "outputs": [],
      "stateMutability": "view",
      "type": "function"
    },
    {
      "inputs": [],
      "name": "getAllProposals",
      "outputs": [
        {
          "components": [
            {
              "internalType": "uint256",
              "name": "id",
              "type": "uint256"
            },
            {
              "internalType": "address",
              "name": "creator",
              "type": "address"
            },
            {
              "internalType": "string",
              "name": "title",
              "type": "string"
            },
            {
              "internalType": "string",
              "name": "description",
              "type": "string"
            },
            {
              "internalType": "uint256",
              "name": "startTime",
              "type": "uint256"
            },
            {
              "internalType": "uint256",
              "name": "endTime",
              "type": "uint256"
            },
            {
              "internalType": "uint256",
              "name": "yesVotes",
              "type": "uint256"
            },
            {
              "internalType": "uint256",
              "name": "noVotes",
              "type": "uint256"
            }
          ],
          "internalType": "struct TokenGatedDao.Proposal[]",
          "name": "",
          "type": "tuple[]"
        }
      ],
      "stateMutability": "view",
      "type": "function"
    },
    {
      "inputs": [
        {
          "internalType": "address",
          "name": "_address",
          "type": "address"
        }
      ],
      "name": "getMemberStatus",
      "outputs": [
        {
          "internalType": "bool",
          "name": "",
          "type": "bool"
        }
      ],
      "stateMutability": "view",
      "type": "function"
    },
    {
      "inputs": [
        {
          "internalType": "uint256",
          "name": "proposalId",
          "type": "uint256"
        },
        {
          "internalType": "address",
          "name": "_address",
          "type": "address"
        }
      ],
      "name": "getMemberVoteStatus",
      "outputs": [
        {
          "internalType": "bool",
          "name": "",
          "type": "bool"
        }
      ],
      "stateMutability": "view",
      "type": "function"
    },
    {
      "inputs": [],
      "name": "getMembers",
      "outputs": [
        {
          "components": [
            {
              "internalType": "address",
              "name": "memberAddress",
              "type": "address"
            },
            {
              "internalType": "uint256",
              "name": "tokenBalance",
              "type": "uint256"
            }
          ],
          "internalType": "struct TokenGatedDao.Member[]",
          "name": "",
          "type": "tuple[]"
        }
      ],
      "stateMutability": "view",
      "type": "function"
    },
    {
      "inputs": [
        {
          "internalType": "uint256",
          "name": "_proposalIndex",
          "type": "uint256"
        }
      ],
      "name": "getProposal",
      "outputs": [
        {
          "internalType": "address",
          "name": "creator",
          "type": "address"
        },
        {
          "internalType": "string",
          "name": "title",
          "type": "string"
        },
        {
          "internalType": "string",
          "name": "description",
          "type": "string"
        },
        {
          "internalType": "uint256",
          "name": "startTime",
          "type": "uint256"
        },
        {
          "internalType": "uint256",
          "name": "endTime",
          "type": "uint256"
        },
        {
          "internalType": "uint256",
          "name": "yesVotes",
          "type": "uint256"
        },
        {
          "internalType": "uint256",
          "name": "noVotes",
          "type": "uint256"
        }
      ],
      "stateMutability": "view",
      "type": "function"
    },
    {
      "inputs": [
        {
          "internalType": "uint256",
          "name": "_proposalIndex",
          "type": "uint256"
        }
      ],
      "name": "getProposalStatus",
      "outputs": [
        {
          "internalType": "uint256",
          "name": "",
          "type": "uint256"
        }
      ],
      "stateMutability": "view",
      "type": "function"
    },
    {
      "inputs": [
        {
          "internalType": "address",
          "name": "_address",
          "type": "address"
        }
      ],
      "name": "getTokenBalance",
      "outputs": [
        {
          "internalType": "uint256",
          "name": "",
          "type": "uint256"
        }
      ],
      "stateMutability": "view",
      "type": "function"
    },
    {
      "inputs": [],
      "name": "getVoters",
      "outputs": [
        {
          "components": [
            {
              "internalType": "uint256",
              "name": "proposerIndex",
              "type": "uint256"
            },
            {
              "internalType": "address",
              "name": "voterAddress",
              "type": "address"
            },
            {
              "internalType": "uint256",
              "name": "voteChoice",
              "type": "uint256"
            }
          ],
          "internalType": "struct TokenGatedDao.Voter[]",
          "name": "",
          "type": "tuple[]"
        }
      ],
      "stateMutability": "view",
      "type": "function"
    },
    {
      "inputs": [],
      "name": "memberCount",
      "outputs": [
        {
          "internalType": "uint256",
          "name": "",
          "type": "uint256"
        }
      ],
      "stateMutability": "view",
      "type": "function"
    },
    {
      "inputs": [
        {
          "internalType": "uint256",
          "name": "",
          "type": "uint256"
        }
      ],
      "name": "members",
      "outputs": [
        {
          "internalType": "address",
          "name": "memberAddress",
          "type": "address"
        },
        {
          "internalType": "uint256",
          "name": "tokenBalance",
          "type": "uint256"
        }
      ],
      "stateMutability": "view",
      "type": "function"
    },
    {
      "inputs": [
        {
          "internalType": "address",
          "name": "",
          "type": "address"
        }
      ],
      "name": "membersMap",
      "outputs": [
        {
          "internalType": "address",
          "name": "memberAddress",
          "type": "address"
        },
        {
          "internalType": "uint256",
          "name": "tokenBalance",
          "type": "uint256"
        }
      ],
      "stateMutability": "view",
      "type": "function"
    },
    {
      "inputs": [],
      "name": "proposalCount",
      "outputs": [
        {
          "internalType": "uint256",
          "name": "",
          "type": "uint256"
        }
      ],
      "stateMutability": "view",
      "type": "function"
    },
    {
      "inputs": [
        {
          "internalType": "uint256",
          "name": "",
          "type": "uint256"
        }
      ],
      "name": "proposals",
      "outputs": [
        {
          "internalType": "uint256",
          "name": "id",
          "type": "uint256"
        },
        {
          "internalType": "address",
          "name": "creator",
          "type": "address"
        },
        {
          "internalType": "string",
          "name": "title",
          "type": "string"
        },
        {
          "internalType": "string",
          "name": "description",
          "type": "string"
        },
        {
          "internalType": "uint256",
          "name": "startTime",
          "type": "uint256"
        },
        {
          "internalType": "uint256",
          "name": "endTime",
          "type": "uint256"
        },
        {
          "internalType": "uint256",
          "name": "yesVotes",
          "type": "uint256"
        },
        {
          "internalType": "uint256",
          "name": "noVotes",
          "type": "uint256"
        }
      ],
      "stateMutability": "view",
      "type": "function"
    },
    {
      "inputs": [],
      "name": "token",
      "outputs": [
        {
          "internalType": "contract IERC20",
          "name": "",
          "type": "address"
        }
      ],
      "stateMutability": "view",
      "type": "function"
    },
    {
      "inputs": [
        {
          "internalType": "uint256",
          "name": "_proposalIndex",
          "type": "uint256"
        },
        {
          "internalType": "uint256",
          "name": "_choice",
          "type": "uint256"
        }
      ],
      "name": "vote",
      "outputs": [],
      "stateMutability": "nonpayable",
      "type": "function"
    },
    {
      "inputs": [
        {
          "internalType": "uint256",
          "name": "",
          "type": "uint256"
        }
      ],
      "name": "voters",
      "outputs": [
        {
          "internalType": "uint256",
          "name": "proposerIndex",
          "type": "uint256"
        },
        {
          "internalType": "address",
          "name": "voterAddress",
          "type": "address"
        },
        {
          "internalType": "uint256",
          "name": "voteChoice",
          "type": "uint256"
        }
      ],
      "stateMutability": "view",
      "type": "function"
    },
    {
      "inputs": [],
      "name": "votingPeriod",
      "outputs": [
        {
          "internalType": "uint256",
          "name": "",
          "type": "uint256"
        }
      ],
      "stateMutability": "view",
      "type": "function"
    }
  ],
  "bytecode": "0x60806040523480156200001157600080fd5b506040516200399a3803806200399a833981810160405281019062000037919062000129565b80600160006101000a81548173ffffffffffffffffffffffffffffffffffffffff021916908373ffffffffffffffffffffffffffffffffffffffff160217905550336000806101000a81548173ffffffffffffffffffffffffffffffffffffffff021916908373ffffffffffffffffffffffffffffffffffffffff160217905550506200015b565b600080fd5b600073ffffffffffffffffffffffffffffffffffffffff82169050919050565b6000620000f182620000c4565b9050919050565b6200010381620000e4565b81146200010f57600080fd5b50565b6000815190506200012381620000f8565b92915050565b600060208284031215620001425762000141620000bf565b5b6000620001528482850162000112565b91505092915050565b61382f806200016b6000396000f3fe608060405234801561001057600080fd5b506004361061012c5760003560e01c80639eab5253116100ad578063da35c66411610071578063da35c66414610354578063da58c7d914610372578063dde8535f146103a4578063e22393b8146103d4578063fc0c546a146104045761012c565b80639eab5253146102a8578063b384abef146102c6578063c7f758a8146102e2578063cceb68f514610318578063cdd72253146103365761012c565b8063401853b7116100f4578063401853b7146101de5780635daf08ca1461020e578063649f89a51461023f5780636b5e17661461025b578063872ea68a146102775761012c565b8063013cf08b14610131578063029d010d1461016857806302a251a31461017257806311aee380146101905780633aecd0e3146101ae575b600080fd5b61014b600480360381019061014691906122cc565b610422565b60405161015f9897969594939291906123d9565b60405180910390f35b6101706105aa565b005b61017a610a47565b6040516101879190612465565b60405180910390f35b610198610a4d565b6040516101a59190612465565b60405180910390f35b6101c860048036038101906101c391906124ac565b610a53565b6040516101d59190612465565b60405180910390f35b6101f860048036038101906101f391906122cc565b610af8565b6040516102059190612465565b60405180910390f35b610228600480360381019061022391906122cc565b610bb5565b6040516102369291906124d9565b60405180910390f35b610259600480360381019061025491906122cc565b610c09565b005b61027560048036038101906102709190612567565b610f33565b005b610291600480360381019061028c91906124ac565b611457565b60405161029f9291906124d9565b60405180910390f35b6102b061149b565b6040516102bd919061270a565b60405180910390f35b6102e060048036038101906102db919061272c565b61155a565b005b6102fc60048036038101906102f791906122cc565b611bc5565b60405161030f979695949392919061276c565b60405180910390f35b610320611e2f565b60405161032d91906129ac565b60405180910390f35b61033e61203b565b60405161034b9190612abf565b60405180910390f35b61035c612104565b6040516103699190612465565b60405180910390f35b61038c600480360381019061038791906122cc565b61210a565b60405161039b93929190612ae1565b60405180910390f35b6103be60048036038101906103b991906124ac565b612164565b6040516103cb9190612b33565b60405180910390f35b6103ee60048036038101906103e99190612b4e565b6121fe565b6040516103fb9190612b33565b60405180910390f35b61040c612266565b6040516104199190612bed565b60405180910390f35b6002818154811061043257600080fd5b90600052602060002090600802016000915090508060000154908060010160009054906101000a900473ffffffffffffffffffffffffffffffffffffffff169080600201805461048190612c37565b80601f01602080910402602001604051908101604052809291908181526020018280546104ad90612c37565b80156104fa5780601f106104cf576101008083540402835291602001916104fa565b820191906000526020600020905b8154815290600101906020018083116104dd57829003601f168201915b50505050509080600301805461050f90612c37565b80601f016020809104026020016040519081016040528092919081815260200182805461053b90612c37565b80156105885780601f1061055d57610100808354040283529160200191610588565b820191906000526020600020905b81548152906001019060200180831161056b57829003601f168201915b5050505050908060040154908060050154908060060154908060070154905088565b600073ffffffffffffffffffffffffffffffffffffffff163373ffffffffffffffffffffffffffffffffffffffff1603610619576040517f08c379a000000000000000000000000000000000000000000000000000000000815260040161061090612cb4565b60405180910390fd5b600073ffffffffffffffffffffffffffffffffffffffff16600960003373ffffffffffffffffffffffffffffffffffffffff1673ffffffffffffffffffffffffffffffffffffffff16815260200190815260200160002060000160009054906101000a900473ffffffffffffffffffffffffffffffffffffffff1673ffffffffffffffffffffffffffffffffffffffff16146106ea576040517f08c379a00000000000000000000000000000000000000000000000000000000081526004016106e190612d20565b60405180910390fd5b6000600960003373ffffffffffffffffffffffffffffffffffffffff1673ffffffffffffffffffffffffffffffffffffffff1681526020019081526020016000209050338160000160006101000a81548173ffffffffffffffffffffffffffffffffffffffff021916908373ffffffffffffffffffffffffffffffffffffffff160217905550600160009054906101000a900473ffffffffffffffffffffffffffffffffffffffff1673ffffffffffffffffffffffffffffffffffffffff166370a08231336040518263ffffffff1660e01b81526004016107cb9190612d40565b602060405180830381865afa1580156107e8573d6000803e3d6000fd5b505050506040513d601f19601f8201168201806040525081019061080c9190612d70565b8160010181905550600460405180604001604052803373ffffffffffffffffffffffffffffffffffffffff168152602001600160009054906101000a900473ffffffffffffffffffffffffffffffffffffffff1673ffffffffffffffffffffffffffffffffffffffff166370a08231336040518263ffffffff1660e01b81526004016108989190612d40565b602060405180830381865afa1580156108b5573d6000803e3d6000fd5b505050506040513d601f19601f820116820180604052508101906108d99190612d70565b815250908060018154018082558091505060019003906000526020600020906002020160009091909190915060008201518160000160006101000a81548173ffffffffffffffffffffffffffffffffffffffff021916908373ffffffffffffffffffffffffffffffffffffffff1602179055506020820151816001015550506007600081548092919061096b90612dcc565b91905055507f8c79ca5dc8dffd30e0ae906c79b4e5d0b55e6e50c77cb39a5acc9f132f13efb433600160009054906101000a900473ffffffffffffffffffffffffffffffffffffffff1673ffffffffffffffffffffffffffffffffffffffff166370a08231336040518263ffffffff1660e01b81526004016109ed9190612d40565b602060405180830381865afa158015610a0a573d6000803e3d6000fd5b505050506040513d601f19601f82011682018060405250810190610a2e9190612d70565b604051610a3c9291906124d9565b60405180910390a150565b60065481565b60075481565b6000600160009054906101000a900473ffffffffffffffffffffffffffffffffffffffff1673ffffffffffffffffffffffffffffffffffffffff166370a08231836040518263ffffffff1660e01b8152600401610ab09190612d40565b602060405180830381865afa158015610acd573d6000803e3d6000fd5b505050506040513d601f19601f82011682018060405250810190610af19190612d70565b9050919050565b60008060028381548110610b0f57610b0e612e14565b5b906000526020600020906008020160040154421015610b315760009050610b9a565b60028381548110610b4557610b44612e14565b5b9060005260206000209060080201600501544211610b665760019050610b99565b60028381548110610b7a57610b79612e14565b5b906000526020600020906008020160050154421115610b9857600290505b5b5b806002811115610bad57610bac612e43565b5b915050919050565b60048181548110610bc557600080fd5b90600052602060002090600202016000915090508060000160009054906101000a900473ffffffffffffffffffffffffffffffffffffffff16908060010154905082565b6005548110610c4d576040517f08c379a0000000000000000000000000000000000000000000000000000000008152600401610c4490612ebe565b60405180910390fd5b3373ffffffffffffffffffffffffffffffffffffffff1660028281548110610c7857610c77612e14565b5b906000526020600020906008020160010160009054906101000a900473ffffffffffffffffffffffffffffffffffffffff1673ffffffffffffffffffffffffffffffffffffffff1614610d00576040517f08c379a0000000000000000000000000000000000000000000000000000000008152600401610cf790612f50565b60405180910390fd5b600060028281548110610d1657610d15612e14565b5b906000526020600020906008020160405180610100016040529081600082015481526020016001820160009054906101000a900473ffffffffffffffffffffffffffffffffffffffff1673ffffffffffffffffffffffffffffffffffffffff1673ffffffffffffffffffffffffffffffffffffffff168152602001600282018054610da090612c37565b80601f0160208091040260200160405190810160405280929190818152602001828054610dcc90612c37565b8015610e195780601f10610dee57610100808354040283529160200191610e19565b820191906000526020600020905b815481529060010190602001808311610dfc57829003601f168201915b50505050508152602001600382018054610e3290612c37565b80601f0160208091040260200160405190810160405280929190818152602001828054610e5e90612c37565b8015610eab5780601f10610e8057610100808354040283529160200191610eab565b820191906000526020600020905b815481529060010190602001808311610e8e57829003601f168201915b505050505081526020016004820154815260200160058201548152602001600682015481526020016007820154815250509050600654421015610f23576040517f08c379a0000000000000000000000000000000000000000000000000000000008152600401610f1a90612fbc565b60405180910390fd5b8060e001518160c0015150505050565b3373ffffffffffffffffffffffffffffffffffffffff16600960003373ffffffffffffffffffffffffffffffffffffffff1673ffffffffffffffffffffffffffffffffffffffff16815260200190815260200160002060000160009054906101000a900473ffffffffffffffffffffffffffffffffffffffff1673ffffffffffffffffffffffffffffffffffffffff1614611003576040517f08c379a0000000000000000000000000000000000000000000000000000000008152600401610ffa9061304e565b60405180910390fd5b6000600160009054906101000a900473ffffffffffffffffffffffffffffffffffffffff1673ffffffffffffffffffffffffffffffffffffffff166370a08231336040518263ffffffff1660e01b81526004016110609190612d40565b602060405180830381865afa15801561107d573d6000803e3d6000fd5b505050506040513d601f19601f820116820180604052508101906110a19190612d70565b116110e1576040517f08c379a00000000000000000000000000000000000000000000000000000000081526004016110d8906130e0565b60405180910390fd5b428211611123576040517f08c379a000000000000000000000000000000000000000000000000000000000815260040161111a90613172565b60405180910390fd5b818111611165576040517f08c379a000000000000000000000000000000000000000000000000000000000815260040161115c90613204565b60405180910390fd5b3373ffffffffffffffffffffffffffffffffffffffff16600960003373ffffffffffffffffffffffffffffffffffffffff1673ffffffffffffffffffffffffffffffffffffffff16815260200190815260200160002060000160009054906101000a900473ffffffffffffffffffffffffffffffffffffffff1673ffffffffffffffffffffffffffffffffffffffff1614611235576040517f08c379a000000000000000000000000000000000000000000000000000000000815260040161122c9061304e565b60405180910390fd5b600260405180610100016040528060055481526020013373ffffffffffffffffffffffffffffffffffffffff16815260200188888080601f016020809104026020016040519081016040528093929190818152602001838380828437600081840152601f19601f82011690508083019250505050505050815260200186868080601f016020809104026020016040519081016040528093929190818152602001838380828437600081840152601f19601f82011690508083019250505050505050815260200184815260200183815260200160008152602001600081525090806001815401808255809150506001900390600052602060002090600802016000909190919091506000820151816000015560208201518160010160006101000a81548173ffffffffffffffffffffffffffffffffffffffff021916908373ffffffffffffffffffffffffffffffffffffffff16021790555060408201518160020190816113a291906133f5565b5060608201518160030190816113b891906133f5565b506080820151816004015560a0820151816005015560c0820151816006015560e082015181600701555050600560008154809291906113f690612dcc565b91905055507fd6b0b08c4ffc17964758389955af67e78f9c97140393526749d4994031e62ef2600160028054905061142e91906134c7565b8787878787876040516114479796959493929190613537565b60405180910390a1505050505050565b60096020528060005260406000206000915090508060000160009054906101000a900473ffffffffffffffffffffffffffffffffffffffff16908060010154905082565b60606004805480602002602001604051908101604052809291908181526020016000905b8282101561155157838290600052602060002090600202016040518060400160405290816000820160009054906101000a900473ffffffffffffffffffffffffffffffffffffffff1673ffffffffffffffffffffffffffffffffffffffff1673ffffffffffffffffffffffffffffffffffffffff168152602001600182015481525050815260200190600101906114bf565b50505050905090565b3373ffffffffffffffffffffffffffffffffffffffff16600960003373ffffffffffffffffffffffffffffffffffffffff1673ffffffffffffffffffffffffffffffffffffffff16815260200190815260200160002060000160009054906101000a900473ffffffffffffffffffffffffffffffffffffffff1673ffffffffffffffffffffffffffffffffffffffff161461162a576040517f08c379a00000000000000000000000000000000000000000000000000000000081526004016116219061304e565b60405180910390fd5b6002828154811061163e5761163d612e14565b5b9060005260206000209060080201600401546002838154811061166457611663612e14565b5b906000526020600020906008020160050154814210156116b9576040517f08c379a00000000000000000000000000000000000000000000000000000000081526004016116b0906135e8565b60405180910390fd5b804211156116fc576040517f08c379a00000000000000000000000000000000000000000000000000000000081526004016116f390613654565b60405180910390fd5b6005548410611740576040517f08c379a000000000000000000000000000000000000000000000000000000000815260040161173790612ebe565b60405180910390fd5b600860003373ffffffffffffffffffffffffffffffffffffffff1673ffffffffffffffffffffffffffffffffffffffff168152602001908152602001600020600085815260200190815260200160002060009054906101000a900460ff16156117de576040517f08c379a00000000000000000000000000000000000000000000000000000000081526004016117d5906136e6565b60405180910390fd5b6000600160009054906101000a900473ffffffffffffffffffffffffffffffffffffffff1673ffffffffffffffffffffffffffffffffffffffff166370a08231336040518263ffffffff1660e01b815260040161183b9190612d40565b602060405180830381865afa158015611858573d6000803e3d6000fd5b505050506040513d601f19601f8201168201806040525081019061187c9190612d70565b116118bc576040517f08c379a00000000000000000000000000000000000000000000000000000000081526004016118b390613752565b60405180910390fd5b3373ffffffffffffffffffffffffffffffffffffffff16600960003373ffffffffffffffffffffffffffffffffffffffff1673ffffffffffffffffffffffffffffffffffffffff16815260200190815260200160002060000160009054906101000a900473ffffffffffffffffffffffffffffffffffffffff1673ffffffffffffffffffffffffffffffffffffffff161461198c576040517f08c379a00000000000000000000000000000000000000000000000000000000081526004016119839061304e565b60405180910390fd5b600183036119d6576001600285815481106119aa576119a9612e14565b5b906000526020600020906008020160060160008282546119ca9190613772565b92505081905550611a14565b6001600285815481106119ec576119eb612e14565b5b90600052602060002090600802016007016000828254611a0c9190613772565b925050819055505b600360405180606001604052808681526020013373ffffffffffffffffffffffffffffffffffffffff1681526020018581525090806001815401808255809150506001900390600052602060002090600302016000909190919091506000820151816000015560208201518160010160006101000a81548173ffffffffffffffffffffffffffffffffffffffff021916908373ffffffffffffffffffffffffffffffffffffffff1602179055506040820151816002015550506001600860003373ffffffffffffffffffffffffffffffffffffffff1673ffffffffffffffffffffffffffffffffffffffff168152602001908152602001600020600086815260200190815260200160002060006101000a81548160ff0219169083151502179055507f7bbc702cfc0c62aaa977159d2c8ff0642f94715abcc34af64106c1b15c2af0a084338560028881548110611b6e57611b6d612e14565b5b90600052602060002090600802016006015460028981548110611b9457611b93612e14565b5b906000526020600020906008020160070154604051611bb79594939291906137a6565b60405180910390a150505050565b60006060806000806000806005548810611c14576040517f08c379a0000000000000000000000000000000000000000000000000000000008152600401611c0b90612ebe565b60405180910390fd5b600060028981548110611c2a57611c29612e14565b5b906000526020600020906008020160405180610100016040529081600082015481526020016001820160009054906101000a900473ffffffffffffffffffffffffffffffffffffffff1673ffffffffffffffffffffffffffffffffffffffff1673ffffffffffffffffffffffffffffffffffffffff168152602001600282018054611cb490612c37565b80601f0160208091040260200160405190810160405280929190818152602001828054611ce090612c37565b8015611d2d5780601f10611d0257610100808354040283529160200191611d2d565b820191906000526020600020905b815481529060010190602001808311611d1057829003601f168201915b50505050508152602001600382018054611d4690612c37565b80601f0160208091040260200160405190810160405280929190818152602001828054611d7290612c37565b8015611dbf5780601f10611d9457610100808354040283529160200191611dbf565b820191906000526020600020905b815481529060010190602001808311611da257829003601f168201915b50505050508152602001600482015481526020016005820154815260200160068201548152602001600782015481525050905080602001518160400151826060015183608001518460a001518560c001518660e00151975097509750975097509750975050919395979092949650565b60606002805480602002602001604051908101604052809291908181526020016000905b82821015612032578382906000526020600020906008020160405180610100016040529081600082015481526020016001820160009054906101000a900473ffffffffffffffffffffffffffffffffffffffff1673ffffffffffffffffffffffffffffffffffffffff1673ffffffffffffffffffffffffffffffffffffffff168152602001600282018054611ee790612c37565b80601f0160208091040260200160405190810160405280929190818152602001828054611f1390612c37565b8015611f605780601f10611f3557610100808354040283529160200191611f60565b820191906000526020600020905b815481529060010190602001808311611f4357829003601f168201915b50505050508152602001600382018054611f7990612c37565b80601f0160208091040260200160405190810160405280929190818152602001828054611fa590612c37565b8015611ff25780601f10611fc757610100808354040283529160200191611ff2565b820191906000526020600020905b815481529060010190602001808311611fd557829003601f168201915b5050505050815260200160048201548152602001600582015481526020016006820154815260200160078201548152505081526020019060010190611e53565b50505050905090565b60606003805480602002602001604051908101604052809291908181526020016000905b828210156120fb5783829060005260206000209060030201604051806060016040529081600082015481526020016001820160009054906101000a900473ffffffffffffffffffffffffffffffffffffffff1673ffffffffffffffffffffffffffffffffffffffff1673ffffffffffffffffffffffffffffffffffffffff1681526020016002820154815250508152602001906001019061205f565b50505050905090565b60055481565b6003818154811061211a57600080fd5b90600052602060002090600302016000915090508060000154908060010160009054906101000a900473ffffffffffffffffffffffffffffffffffffffff16908060020154905083565b60008173ffffffffffffffffffffffffffffffffffffffff16600960008473ffffffffffffffffffffffffffffffffffffffff1673ffffffffffffffffffffffffffffffffffffffff16815260200190815260200160002060000160009054906101000a900473ffffffffffffffffffffffffffffffffffffffff1673ffffffffffffffffffffffffffffffffffffffff16149050919050565b6000600860008373ffffffffffffffffffffffffffffffffffffffff1673ffffffffffffffffffffffffffffffffffffffff168152602001908152602001600020600084815260200190815260200160002060009054906101000a900460ff16905092915050565b600160009054906101000a900473ffffffffffffffffffffffffffffffffffffffff1681565b600080fd5b600080fd5b6000819050919050565b6122a981612296565b81146122b457600080fd5b50565b6000813590506122c6816122a0565b92915050565b6000602082840312156122e2576122e161228c565b5b60006122f0848285016122b7565b91505092915050565b61230281612296565b82525050565b600073ffffffffffffffffffffffffffffffffffffffff82169050919050565b600061233382612308565b9050919050565b61234381612328565b82525050565b600081519050919050565b600082825260208201905092915050565b60005b83811015612383578082015181840152602081019050612368565b60008484015250505050565b6000601f19601f8301169050919050565b60006123ab82612349565b6123b58185612354565b93506123c5818560208601612365565b6123ce8161238f565b840191505092915050565b6000610100820190506123ef600083018b6122f9565b6123fc602083018a61233a565b818103604083015261240e81896123a0565b9050818103606083015261242281886123a0565b905061243160808301876122f9565b61243e60a08301866122f9565b61244b60c08301856122f9565b61245860e08301846122f9565b9998505050505050505050565b600060208201905061247a60008301846122f9565b92915050565b61248981612328565b811461249457600080fd5b50565b6000813590506124a681612480565b92915050565b6000602082840312156124c2576124c161228c565b5b60006124d084828501612497565b91505092915050565b60006040820190506124ee600083018561233a565b6124fb60208301846122f9565b9392505050565b600080fd5b600080fd5b600080fd5b60008083601f84011261252757612526612502565b5b8235905067ffffffffffffffff81111561254457612543612507565b5b6020830191508360018202830111156125605761255f61250c565b5b9250929050565b600080600080600080608087890312156125845761258361228c565b5b600087013567ffffffffffffffff8111156125a2576125a1612291565b5b6125ae89828a01612511565b9650965050602087013567ffffffffffffffff8111156125d1576125d0612291565b5b6125dd89828a01612511565b945094505060406125f089828a016122b7565b925050606061260189828a016122b7565b9150509295509295509295565b600081519050919050565b600082825260208201905092915050565b6000819050602082019050919050565b61264381612328565b82525050565b61265281612296565b82525050565b60408201600082015161266e600085018261263a565b5060208201516126816020850182612649565b50505050565b60006126938383612658565b60408301905092915050565b6000602082019050919050565b60006126b78261260e565b6126c18185612619565b93506126cc8361262a565b8060005b838110156126fd5781516126e48882612687565b97506126ef8361269f565b9250506001810190506126d0565b5085935050505092915050565b6000602082019050818103600083015261272481846126ac565b905092915050565b600080604083850312156127435761274261228c565b5b6000612751858286016122b7565b9250506020612762858286016122b7565b9150509250929050565b600060e082019050612781600083018a61233a565b818103602083015261279381896123a0565b905081810360408301526127a781886123a0565b90506127b660608301876122f9565b6127c360808301866122f9565b6127d060a08301856122f9565b6127dd60c08301846122f9565b98975050505050505050565b600081519050919050565b600082825260208201905092915050565b6000819050602082019050919050565b600082825260208201905092915050565b600061283182612349565b61283b8185612815565b935061284b818560208601612365565b6128548161238f565b840191505092915050565b6000610100830160008301516128786000860182612649565b50602083015161288b602086018261263a565b50604083015184820360408601526128a38282612826565b915050606083015184820360608601526128bd8282612826565b91505060808301516128d26080860182612649565b5060a08301516128e560a0860182612649565b5060c08301516128f860c0860182612649565b5060e083015161290b60e0860182612649565b508091505092915050565b6000612922838361285f565b905092915050565b6000602082019050919050565b6000612942826127e9565b61294c81856127f4565b93508360208202850161295e85612805565b8060005b8581101561299a578484038952815161297b8582612916565b94506129868361292a565b925060208a01995050600181019050612962565b50829750879550505050505092915050565b600060208201905081810360008301526129c68184612937565b905092915050565b600081519050919050565b600082825260208201905092915050565b6000819050602082019050919050565b606082016000820151612a106000850182612649565b506020820151612a23602085018261263a565b506040820151612a366040850182612649565b50505050565b6000612a4883836129fa565b60608301905092915050565b6000602082019050919050565b6000612a6c826129ce565b612a7681856129d9565b9350612a81836129ea565b8060005b83811015612ab2578151612a998882612a3c565b9750612aa483612a54565b925050600181019050612a85565b5085935050505092915050565b60006020820190508181036000830152612ad98184612a61565b905092915050565b6000606082019050612af660008301866122f9565b612b03602083018561233a565b612b1060408301846122f9565b949350505050565b60008115159050919050565b612b2d81612b18565b82525050565b6000602082019050612b486000830184612b24565b92915050565b60008060408385031215612b6557612b6461228c565b5b6000612b73858286016122b7565b9250506020612b8485828601612497565b9150509250929050565b6000819050919050565b6000612bb3612bae612ba984612308565b612b8e565b612308565b9050919050565b6000612bc582612b98565b9050919050565b6000612bd782612bba565b9050919050565b612be781612bcc565b82525050565b6000602082019050612c026000830184612bde565b92915050565b7f4e487b7100000000000000000000000000000000000000000000000000000000600052602260045260246000fd5b60006002820490506001821680612c4f57607f821691505b602082108103612c6257612c61612c08565b5b50919050565b7f496e76616c696420616464726573730000000000000000000000000000000000600082015250565b6000612c9e600f83612354565b9150612ca982612c68565b602082019050919050565b60006020820190508181036000830152612ccd81612c91565b9050919050565b7f416c72656164792061206d656d62657200000000000000000000000000000000600082015250565b6000612d0a601083612354565b9150612d1582612cd4565b602082019050919050565b60006020820190508181036000830152612d3981612cfd565b9050919050565b6000602082019050612d55600083018461233a565b92915050565b600081519050612d6a816122a0565b92915050565b600060208284031215612d8657612d8561228c565b5b6000612d9484828501612d5b565b91505092915050565b7f4e487b7100000000000000000000000000000000000000000000000000000000600052601160045260246000fd5b6000612dd782612296565b91507fffffffffffffffffffffffffffffffffffffffffffffffffffffffffffffffff8203612e0957612e08612d9d565b5b600182019050919050565b7f4e487b7100000000000000000000000000000000000000000000000000000000600052603260045260246000fd5b7f4e487b7100000000000000000000000000000000000000000000000000000000600052602160045260246000fd5b7f496e76616c69642070726f706f73616c20696e64657800000000000000000000600082015250565b6000612ea8601683612354565b9150612eb382612e72565b602082019050919050565b60006020820190508181036000830152612ed781612e9b565b9050919050565b7f4f6e6c79207468652063726561746f72206f66207468652070726f706f73616c60008201527f2063616e20656e642074686520766f74696e6700000000000000000000000000602082015250565b6000612f3a603383612354565b9150612f4582612ede565b604082019050919050565b60006020820190508181036000830152612f6981612f2d565b9050919050565b7f566f74696e6720706572696f6420686173206e6f7420656e6465642079657400600082015250565b6000612fa6601f83612354565b9150612fb182612f70565b602082019050919050565b60006020820190508181036000830152612fd581612f99565b9050919050565b7f596f7520617265206e6f74207965742061206d656d626572206f66207468697360008201527f20636f6d6d756e69747900000000000000000000000000000000000000000000602082015250565b6000613038602a83612354565b915061304382612fdc565b604082019050919050565b600060208201905081810360008301526130678161302b565b9050919050565b7f596f75206d75737420686f6c6420746f6b656e7320746f20637265617465206160008201527f2070726f706f73616c0000000000000000000000000000000000000000000000602082015250565b60006130ca602983612354565b91506130d58261306e565b604082019050919050565b600060208201905081810360008301526130f9816130bd565b9050919050565b7f50726f706f73616c2073746172742074696d65206d75737420626520696e207460008201527f6865206675747572650000000000000000000000000000000000000000000000602082015250565b600061315c602983612354565b915061316782613100565b604082019050919050565b6000602082019050818103600083015261318b8161314f565b9050919050565b7f50726f706f73616c20656e642074696d65206d7573742062652061667465722060008201527f73746172742074696d6500000000000000000000000000000000000000000000602082015250565b60006131ee602a83612354565b91506131f982613192565b604082019050919050565b6000602082019050818103600083015261321d816131e1565b9050919050565b7f4e487b7100000000000000000000000000000000000000000000000000000000600052604160045260246000fd5b60008190508160005260206000209050919050565b60006020601f8301049050919050565b600082821b905092915050565b6000600883026132b57fffffffffffffffffffffffffffffffffffffffffffffffffffffffffffffffff82613278565b6132bf8683613278565b95508019841693508086168417925050509392505050565b60006132f26132ed6132e884612296565b612b8e565b612296565b9050919050565b6000819050919050565b61330c836132d7565b613320613318826132f9565b848454613285565b825550505050565b600090565b613335613328565b613340818484613303565b505050565b5b818110156133645761335960008261332d565b600181019050613346565b5050565b601f8211156133a95761337a81613253565b61338384613268565b81016020851015613392578190505b6133a661339e85613268565b830182613345565b50505b505050565b600082821c905092915050565b60006133cc600019846008026133ae565b1980831691505092915050565b60006133e583836133bb565b9150826002028217905092915050565b6133fe82612349565b67ffffffffffffffff81111561341757613416613224565b5b6134218254612c37565b61342c828285613368565b600060209050601f83116001811461345f576000841561344d578287015190505b61345785826133d9565b8655506134bf565b601f19841661346d86613253565b60005b8281101561349557848901518255600182019150602085019450602081019050613470565b868310156134b257848901516134ae601f8916826133bb565b8355505b6001600288020188555050505b505050505050565b60006134d282612296565b91506134dd83612296565b92508282039050818111156134f5576134f4612d9d565b5b92915050565b82818337600083830152505050565b60006135168385612354565b93506135238385846134fb565b61352c8361238f565b840190509392505050565b600060a08201905061354c600083018a6122f9565b818103602083015261355f81888a61350a565b9050818103604083015261357481868861350a565b905061358360608301856122f9565b61359060808301846122f9565b98975050505050505050565b7f566f74696e6720686173206e6f74207374617274656420796574000000000000600082015250565b60006135d2601a83612354565b91506135dd8261359c565b602082019050919050565b60006020820190508181036000830152613601816135c5565b9050919050565b7f566f74696e672068617320616c726561647920656e6465640000000000000000600082015250565b600061363e601883612354565b915061364982613608565b602082019050919050565b6000602082019050818103600083015261366d81613631565b9050919050565b7f596f75206861766520616c726561647920766f74656420666f7220746869732060008201527f70726f706f73616c000000000000000000000000000000000000000000000000602082015250565b60006136d0602883612354565b91506136db82613674565b604082019050919050565b600060208201905081810360008301526136ff816136c3565b9050919050565b7f596f75206d75737420686f6c6420746f6b656e7320746f20766f746500000000600082015250565b600061373c601c83612354565b915061374782613706565b602082019050919050565b6000602082019050818103600083015261376b8161372f565b9050919050565b600061377d82612296565b915061378883612296565b92508282019050808211156137a05761379f612d9d565b5b92915050565b600060a0820190506137bb60008301886122f9565b6137c8602083018761233a565b6137d560408301866122f9565b6137e260608301856122f9565b6137ef60808301846122f9565b969550505050505056fea26469706673582212205c7f5d659ad4a75a392dedacd6b5dffcd665843790f83df4a3d6927d1fa242f864736f6c63430008110033",
  "linkReferences": {},
  "deployedLinkReferences": {}
}